{
  "_format": "hh-sol-artifact-1",
  "contractName": "TwitterContract",
  "sourceName": "contracts/TwitterContract.sol",
  "abi": [
    {
      "anonymous": false,
      "inputs": [
        {
          "indexed": false,
          "internalType": "uint256",
          "name": "tweetId",
          "type": "uint256"
        },
        {
          "indexed": false,
          "internalType": "address",
          "name": "useraddress",
          "type": "address"
        },
        {
          "indexed": false,
          "internalType": "uint256",
          "name": "goodCount",
          "type": "uint256"
        }
      ],
      "name": "AddGood",
      "type": "event"
    },
    {
      "anonymous": false,
      "inputs": [
        {
          "indexed": false,
          "internalType": "address",
          "name": "recipient",
          "type": "address"
        },
        {
          "indexed": false,
          "internalType": "uint256",
          "name": "tweetId",
          "type": "uint256"
        }
      ],
      "name": "AddTweet",
      "type": "event"
    },
    {
      "anonymous": false,
      "inputs": [
        {
          "indexed": false,
          "internalType": "uint256",
          "name": "tweetId",
          "type": "uint256"
        },
        {
          "indexed": false,
          "internalType": "bool",
          "name": "isDeleted",
          "type": "bool"
        }
      ],
      "name": "DeleteTweet",
      "type": "event"
    },
    {
      "inputs": [
        {
          "internalType": "uint256",
          "name": "_tweetId",
          "type": "uint256"
        }
      ],
      "name": "addGood",
      "outputs": [],
      "stateMutability": "nonpayable",
      "type": "function"
    },
    {
      "inputs": [
        {
          "internalType": "string",
          "name": "_tweetText",
          "type": "string"
        },
        {
          "internalType": "bool",
          "name": "_isDeleted",
          "type": "bool"
        }
      ],
      "name": "addTweet",
      "outputs": [],
      "stateMutability": "nonpayable",
      "type": "function"
    },
    {
      "inputs": [
        {
          "internalType": "uint256",
          "name": "_tweetId",
          "type": "uint256"
        },
        {
          "internalType": "bool",
          "name": "_isDeleted",
          "type": "bool"
        }
      ],
      "name": "deleteTweet",
      "outputs": [],
      "stateMutability": "nonpayable",
      "type": "function"
    },
    {
      "inputs": [],
      "name": "getAllTweets",
      "outputs": [
        {
          "components": [
            {
              "internalType": "uint256",
              "name": "id",
              "type": "uint256"
            },
            {
              "internalType": "address",
              "name": "username",
              "type": "address"
            },
            {
              "internalType": "string",
              "name": "tweetText",
              "type": "string"
            },
            {
              "internalType": "uint256",
              "name": "good",
              "type": "uint256"
            },
            {
              "internalType": "bool",
              "name": "isDeleted",
              "type": "bool"
            },
            {
              "internalType": "uint256",
              "name": "timestamp",
              "type": "uint256"
            }
          ],
          "internalType": "struct TwitterContract.Tweet[]",
          "name": "",
          "type": "tuple[]"
        }
      ],
      "stateMutability": "view",
      "type": "function"
    }
  ],
  "bytecode": "0x608060405234801561001057600080fd5b5061114c806100206000396000f3fe608060405234801561001057600080fd5b506004361061004c5760003560e01c80635325613514610051578063b81fc3cc1461006f578063e580339f1461008b578063f0312a37146100a7575b600080fd5b6100596100c3565b6040516100669190610de7565b60405180910390f35b61008960048036038101906100849190610bb4565b6104c3565b005b6100a560048036038101906100a09190610b60565b610726565b005b6100c160048036038101906100bc9190610bdd565b6108d5565b005b60606000808054905067ffffffffffffffff81111561010b577f4e487b7100000000000000000000000000000000000000000000000000000000600052604160045260246000fd5b60405190808252806020026020018201604052801561014457816020015b6101316109dd565b8152602001906001900390816101295790505b5090506000805b600080549050811015610397576000151560008281548110610196577f4e487b7100000000000000000000000000000000000000000000000000000000600052603260045260246000fd5b906000526020600020906006020160040160009054906101000a900460ff161515141561038457600081815481106101f7577f4e487b7100000000000000000000000000000000000000000000000000000000600052603260045260246000fd5b90600052602060002090600602016040518060c0016040529081600082015481526020016001820160009054906101000a900473ffffffffffffffffffffffffffffffffffffffff1673ffffffffffffffffffffffffffffffffffffffff1673ffffffffffffffffffffffffffffffffffffffff16815260200160028201805461028090610f9e565b80601f01602080910402602001604051908101604052809291908181526020018280546102ac90610f9e565b80156102f95780601f106102ce576101008083540402835291602001916102f9565b820191906000526020600020905b8154815290600101906020018083116102dc57829003601f168201915b50505050508152602001600382015481526020016004820160009054906101000a900460ff1615151515815260200160058201548152505083838151811061036a577f4e487b7100000000000000000000000000000000000000000000000000000000600052603260045260246000fd5b6020026020010181905250818061038090611001565b9250505b808061038f90611001565b91505061014b565b5060008167ffffffffffffffff8111156103da577f4e487b7100000000000000000000000000000000000000000000000000000000600052604160045260246000fd5b60405190808252806020026020018201604052801561041357816020015b6104006109dd565b8152602001906001900390816103f85790505b50905060005b828110156104b95783818151811061045a577f4e487b7100000000000000000000000000000000000000000000000000000000600052603260045260246000fd5b602002602001015182828151811061049b577f4e487b7100000000000000000000000000000000000000000000000000000000600052603260045260246000fd5b602002602001018190525080806104b190611001565b915050610419565b5080935050505090565b6000805b600260003373ffffffffffffffffffffffffffffffffffffffff1673ffffffffffffffffffffffffffffffffffffffff168152602001908152602001600020805490508110156105b55782600260003373ffffffffffffffffffffffffffffffffffffffff1673ffffffffffffffffffffffffffffffffffffffff1681526020019081526020016000208281548110610589577f4e487b7100000000000000000000000000000000000000000000000000000000600052603260045260246000fd5b906000526020600020016000015414156105a257600191505b80806105ad90611001565b9150506104c7565b508061069c57600260003373ffffffffffffffffffffffffffffffffffffffff1673ffffffffffffffffffffffffffffffffffffffff1681526020019081526020016000206040518060200160405280848152509080600181540180825580915050600190039060005260206000200160009091909190915060008201518160000155505060008281548110610674577f4e487b7100000000000000000000000000000000000000000000000000000000600052603260045260246000fd5b9060005260206000209060060201600301600081548092919061069690611001565b91905055505b7f9dd958ea83f6a721da2a92a3905d46d0f52a44401ce623853888f28ccaa4c5788233600085815481106106f9577f4e487b7100000000000000000000000000000000000000000000000000000000600052603260045260246000fd5b90600052602060002090600602016003015460405161071a93929190610e09565b60405180910390a15050565b6000808054905090506000806040518060c001604052808481526020013373ffffffffffffffffffffffffffffffffffffffff16815260200186815260200183815260200185151581526020014281525090806001815401808255809150506001900390600052602060002090600602016000909190919091506000820151816000015560208201518160010160006101000a81548173ffffffffffffffffffffffffffffffffffffffff021916908373ffffffffffffffffffffffffffffffffffffffff160217905550604082015181600201908051906020019061080d929190610a2b565b506060820151816003015560808201518160040160006101000a81548160ff02191690831515021790555060a082015181600501555050336001600084815260200190815260200160002060006101000a81548173ffffffffffffffffffffffffffffffffffffffff021916908373ffffffffffffffffffffffffffffffffffffffff1602179055507f8b2db9b424f26463510ef5b02c16f2465836b52081b51d2112ec76102053bdea33836040516108c7929190610dbe565b60405180910390a150505050565b3373ffffffffffffffffffffffffffffffffffffffff166001600084815260200190815260200160002060009054906101000a900473ffffffffffffffffffffffffffffffffffffffff1673ffffffffffffffffffffffffffffffffffffffff1614156109d9578060008381548110610977577f4e487b7100000000000000000000000000000000000000000000000000000000600052603260045260246000fd5b906000526020600020906006020160040160006101000a81548160ff0219169083151502179055507f2430f837dd2fb40e08c064be9db3d0cf2a7a21f8fe716a2a41787dafc66a7e2a82826040516109d0929190610e40565b60405180910390a15b5050565b6040518060c0016040528060008152602001600073ffffffffffffffffffffffffffffffffffffffff1681526020016060815260200160008152602001600015158152602001600081525090565b828054610a3790610f9e565b90600052602060002090601f016020900481019282610a595760008555610aa0565b82601f10610a7257805160ff1916838001178555610aa0565b82800160010185558215610aa0579182015b82811115610a9f578251825591602001919060010190610a84565b5b509050610aad9190610ab1565b5090565b5b80821115610aca576000816000905550600101610ab2565b5090565b6000610ae1610adc84610e8e565b610e69565b905082815260208101848484011115610af957600080fd5b610b04848285610f5c565b509392505050565b600081359050610b1b816110e8565b92915050565b600082601f830112610b3257600080fd5b8135610b42848260208601610ace565b91505092915050565b600081359050610b5a816110ff565b92915050565b60008060408385031215610b7357600080fd5b600083013567ffffffffffffffff811115610b8d57600080fd5b610b9985828601610b21565b9250506020610baa85828601610b0c565b9150509250929050565b600060208284031215610bc657600080fd5b6000610bd484828501610b4b565b91505092915050565b60008060408385031215610bf057600080fd5b6000610bfe85828601610b4b565b9250506020610c0f85828601610b0c565b9150509250929050565b6000610c258383610d17565b905092915050565b610c3681610f14565b82525050565b610c4581610f14565b82525050565b6000610c5682610ecf565b610c608185610ef2565b935083602082028501610c7285610ebf565b8060005b85811015610cae5784840389528151610c8f8582610c19565b9450610c9a83610ee5565b925060208a01995050600181019050610c76565b50829750879550505050505092915050565b610cc981610f26565b82525050565b610cd881610f26565b82525050565b6000610ce982610eda565b610cf38185610f03565b9350610d03818560208601610f6b565b610d0c816110d7565b840191505092915050565b600060c083016000830151610d2f6000860182610da0565b506020830151610d426020860182610c2d565b5060408301518482036040860152610d5a8282610cde565b9150506060830151610d6f6060860182610da0565b506080830151610d826080860182610cc0565b5060a0830151610d9560a0860182610da0565b508091505092915050565b610da981610f52565b82525050565b610db881610f52565b82525050565b6000604082019050610dd36000830185610c3c565b610de06020830184610daf565b9392505050565b60006020820190508181036000830152610e018184610c4b565b905092915050565b6000606082019050610e1e6000830186610daf565b610e2b6020830185610c3c565b610e386040830184610daf565b949350505050565b6000604082019050610e556000830185610daf565b610e626020830184610ccf565b9392505050565b6000610e73610e84565b9050610e7f8282610fd0565b919050565b6000604051905090565b600067ffffffffffffffff821115610ea957610ea86110a8565b5b610eb2826110d7565b9050602081019050919050565b6000819050602082019050919050565b600081519050919050565b600081519050919050565b6000602082019050919050565b600082825260208201905092915050565b600082825260208201905092915050565b6000610f1f82610f32565b9050919050565b60008115159050919050565b600073ffffffffffffffffffffffffffffffffffffffff82169050919050565b6000819050919050565b82818337600083830152505050565b60005b83811015610f89578082015181840152602081019050610f6e565b83811115610f98576000848401525b50505050565b60006002820490506001821680610fb657607f821691505b60208210811415610fca57610fc9611079565b5b50919050565b610fd9826110d7565b810181811067ffffffffffffffff82111715610ff857610ff76110a8565b5b80604052505050565b600061100c82610f52565b91507fffffffffffffffffffffffffffffffffffffffffffffffffffffffffffffffff82141561103f5761103e61104a565b5b600182019050919050565b7f4e487b7100000000000000000000000000000000000000000000000000000000600052601160045260246000fd5b7f4e487b7100000000000000000000000000000000000000000000000000000000600052602260045260246000fd5b7f4e487b7100000000000000000000000000000000000000000000000000000000600052604160045260246000fd5b6000601f19601f8301169050919050565b6110f181610f26565b81146110fc57600080fd5b50565b61110881610f52565b811461111357600080fd5b5056fea264697066735822122096ba468e5a3ebdce907b83e4c093425457e1ee3cc75ab9405426f234d4741ee664736f6c63430008040033",
  "linkReferences": {},
  "deployedLinkReferences": {}
}